:100000000C945E000C9486000C9486000C94860080
:100010000C9486000C9486000C9486000C94860048
:100020000C9486000C9486000C9486000C94860038
:100030000C9486000C9486000C9486000C94860028
:100040000C94B3040C9486000C9481040C945B040F
:100050000C9486000C9486000C9486000C94860008
:100060000C9486000C948600000000080002010039
:100070000003040700000000000000000000000072
:10008000250028002B0000000000240027002A0083
:10009000040404040404040402020202020203032E
:1000A0000303030301020408102040800102040836
:1000B0001020010204081020FD04C40711241FBEF3
:1000C000CFEFD8E0DEBFCDBF22E0A6EDB1E001C0AA
:1000D0001D92A239B207E1F711E0A0E0B1E0E2E63B
:1000E000F4E102C005900D92A63DB107D9F710E0EA
:1000F000CDE5D0E004C02197FE010E942308CC3555
:10010000D107C9F70E9473050C94240A0C940000CF
:100110000895AF92BF92CF92DF92EF92FF920F932A
:100120001F93CF93DF936C017B018B01040F151F8D
:10013000EB015E01AE18BF08C017D10759F06991F5
:10014000D601ED91FC910190F081E02DC601099559
:10015000892B79F7C501DF91CF911F910F91FF9006
:10016000EF90DF90CF90BF90AF900895FC01538D3A
:10017000448D252F30E0842F90E0821B930B541781
:1001800010F0CF96089501970895FC01918D828D0E
:10019000981761F0A28DAE0FBF2FB11D5D968C91A7
:1001A000928D9F5F9F73928F90E008958FEF9FEFE6
:1001B00008952FB7F8948091E7019091E801A091FC
:1001C000E901B091EA012FBF8093F3019093F4010C
:1001D000A093F501B093F6018BEE91E00E94C5006B
:1001E00097FF26C02FB7F8948091E7019091E8011E
:1001F000A091E901B091EA012FBF4091F301509124
:10020000F4016091F5017091F601841B950BA60B2A
:10021000B70B4091EF015091F0016091F1017091A5
:10022000F20184179507A607B707B0F28FEF9FEF8B
:100230000895FC01918D828D981731F0828DE80F21
:10024000F11D858D90E008958FEF9FEF0895FC01DB
:10025000918D228D892F90E0805C9F4F821B9109A8
:100260008F73992708958BEE91E00E94270121E07A
:10027000892B09F420E0822F089580E090E0892BFB
:1002800029F00E94330181110C9400000895FC01B3
:10029000A48DA80FB92FB11DA35ABF4F2C91848DE7
:1002A00090E001968F739927848FA689B7892C9344
:1002B000A089B1898C91837080648C93938D848D97
:1002C000981306C00288F389E02D80818F7D80839A
:1002D0000895EF92FF920F931F93CF93DF93EC015A
:1002E00081E0888F9B8D8C8D98131AC0E889F989DD
:1002F000808185FF15C09FB7F894EE89FF896083E0
:10030000E889F98980818370806480839FBF81E060
:1003100090E0DF91CF911F910F91FF90EF900895A2
:10032000F62E0B8D10E00F5F1F4F0F731127E02E7D
:100330008C8D8E110CC00FB607FCFACFE889F989B5
:10034000808185FFF5CFCE010E944701F1CFEB8D73
:10035000EC0FFD2FF11DE35AFF4FF0829FB7F89489
:100360000B8FEA89FB8980818062CFCFCF93DF93A7
:10037000EC01888D8823B9F0AA89BB89E889F989BD
:100380008C9185FD03C0808186FD0DC00FB607FCF2
:10039000F7CF8C9185FFF2CF808185FFEDCFCE0125
:1003A0000E944701E9CFDF91CF91089590E0FC01D1
:1003B000E859FF4F2491FC01EC55FF4F3491FC01AB
:1003C000E057FF4FE491EE23C9F0222339F02330A8
:1003D00001F1A8F4213019F1223029F1F0E0EE0FFB
:1003E000FF1FE458FF4FA591B4918FB7F894EC919B
:1003F000611126C030953E233C938FBF089527306E
:10040000A9F02830C9F0243049F7809180008F7D11
:1004100003C0809180008F7780938000DFCF84B508
:100420008F7784BDDBCF84B58F7DFBCF8091B0000B
:100430008F778093B000D2CF8091B0008F7DF9CFBD
:100440003E2BDACF3FB7F8948091D7019091D80135
:10045000A091D901B091DA0126B5A89B05C02F3F24
:1004600019F00196A11DB11D3FBFBA2FA92F982FDA
:100470008827BC01CD01620F711D811D911D42E0D5
:10048000660F771F881F991F4A95D1F70895FC01C1
:1004900001900020E9F73197AF01481B590BBC01CF
:1004A0008BEE91E00C948900CF93DF930E9447027A
:1004B000EC0188E491E00E9447028C0F9D1FDF91C0
:1004C000CF9108958F929F92AF92BF92CF92DF9279
:1004D000EF92FF920F931F93CF93DF93CDB7DEB7C9
:1004E000A1970FB6F894DEBF0FBECDBF6C01990F78
:1004F000EE08FF08F7FE47C06DE28BEE91E00E9428
:1005000069018C0122273327A9012C193D094E09C5
:100510005F0919A2CE0181967C019AE0892E912C67
:10052000A12CB12CCA01B901A50194010E940108B6
:10053000605DF70162937F01211531054105510589
:1005400089F790E080E0309719F0CF010E944702D0
:10055000080F191F88E491E00E944702800F911F45
:10056000A1960FB6F894DEBF0FBECDBFDF91CF913D
:100570001F910F91FF90EF90DF90CF90BF90AF90C1
:100580009F908F900895A701960119A28E010F5D8B
:100590001F4F8AE0C82ED12CE12CF12CCA01B901E1
:1005A000A70196010E940108605DF80162938F0126
:1005B000211531054105510589F7309729F0CF0103
:1005C0000E9447028C01C6CF10E000E0C3CF0F931A
:1005D0001F93CF93DF93EC018C01085F1F4F89912C
:1005E00099919927FC01EC55FF4F249180579F4F1B
:1005F000FC018491882399F090E0880F991FFC01F9
:10060000EA57FF4FA591B491FC01E458FF4F859143
:1006100094918FB7F894EC91E22BEC938FBF8BE41D
:1006200091E00E944702FE013297808191810E94F1
:1006300062020C171D0799F6DF91CF911F910F9160
:1006400008952F923F924F925F926F927F928F9276
:100650009F92AF92BF92CF92DF92EF92FF920F9351
:100660001F93CF93DF9300D000D000D0CDB7DEB77B
:100670004C013B017A013A832983FA0100851185F7
:1006800086819781801791070CF477C09C01201B0D
:10069000310B890131E06316710489F0F701228979
:1006A000338980899189821793070CF069C0A90169
:1006B000481B590BCA01081719070CF48C0187E570
:1006C00091E00E944702C8010E94620289819A81DA
:1006D000880F991F880F991F05979A838983F401C2
:1006E000EE0FFF1FFC83EB83512C412C90E080E048
:1006F000401651060CF084C0FE82ED82B12CA12C74
:10070000ED81FE8124803580FFEF2F1A3F0AED81B5
:10071000FE8128143904BCF115821482312C212C5D
:1007200043E0220C331C4A95E1F79101205F3E4FD4
:100730001901D12CC12CED81FE8126813781C8148D
:10074000D9040CF042C08085918528173907F4F44C
:10075000C601880F991FD101A80FB91F20813181CF
:10076000F901E80FF91F6C9180810E94D60181E0A8
:1007700090E0FFEFCF1ADF0ADECF081B190B8ACFFC
:10078000821B930B98CF35822482CACF821793079E
:10079000C9F0C601880F991FEB81FC81E81BF90B9A
:1007A00032979F01220D331DED81FE81A081B18121
:1007B000A80FB91FF90160818C910E94D6018FEFBB
:1007C0009FEFD7CF90E080E0D4CF280F391FED8185
:1007D000FE8137832683FFEFAF1ABF0A2D813E814A
:1007E000265F3F4F3E832D836A147B0409F088CF38
:1007F000E981FA813197F1F73FEF431A530A78CF35
:10080000C70126960FB6F894DEBF0FBECDBFDF91AD
:10081000CF911F910F91FF90EF90DF90CF90BF90FD
:10082000AF909F908F907F906F905F904F903F9090
:100830002F90089520918C0230918D02232B39F452
:1008400021E0FC018081882361F020E00AC0BC0126
:1008500080918802909189020E94140A21E0892BDC
:10086000A1F7822F08950F931F93CF93DF93EC018D
:1008700088819981009759F02A813B812617370793
:1008800030F081E0DF91CF911F910F9108958B019E
:100890006F5F7F4F0E944E09009759F099838883BC
:1008A0001B830A832C813D81232B59F7FC01108285
:1008B000E8CF80E0E7CF1F920F920FB60F9211247E
:1008C0002F933F934F935F936F937F938F939F9358
:1008D000AF93BF93EF93FF938BEE91E00E9447019C
:1008E000FF91EF91BF91AF919F918F917F916F9108
:1008F0005F914F913F912F910F900FBE0F901F90DE
:1009000018951F920F920FB60F9211242F938F9369
:100910009F93EF93FF93E091FB01F091FC018081A5
:10092000E0910102F091020282FD1BC09081809152
:1009300004028F5F8F7320910502821741F0E091CE
:100940000402F0E0E551FE4F958F80930402FF9181
:10095000EF919F918F912F910F900FBE0F901F904D
:1009600018958081F4CF1F920F920FB60F92112429
:100970002F933F938F939F93AF93BF938091E70102
:100980009091E801A091E901B091EA013091D6017E
:1009900023E0230F2D3758F50196A11DB11D20939B
:1009A000D6018093E7019093E801A093E901B09309
:1009B000EA018091D7019091D801A091D901B0911D
:1009C000DA010196A11DB11D8093D7019093D80142
:1009D000A093D901B093DA01BF91AF919F918F910C
:1009E0003F912F910F900FBE0F901F90189526E802
:1009F000230F0296A11DB11DD2CF1092EE011092CD
:100A0000ED0188EE93E0A0E0B0E08093EF019093D9
:100A1000F001A093F101B093F2018AE391E0909389
:100A2000EC018093EB0185EC90E09093F8018093CA
:100A3000F70184EC90E09093FA018093F90180EC47
:100A400090E09093FC018093FB0181EC90E0909307
:100A5000FE018093FD0182EC90E090930002809370
:100A6000FF0186EC90E090930202809301021092C5
:100A700004021092050210920602109207021092D0
:100A800089021092880210928B0210928A021092B0
:100A90008D0210928C0270E060E088E892E00E9483
:100AA00033042091880230918902811113C02115ED
:100AB000310519F0C9010E94C508109289021092EF
:100AC000880210928D0210928C0210928B0210926A
:100AD0008A02089510928D0210928C026AE471E0ED
:100AE000C9010C941D0ACF93DF93CDB7DEB72897C9
:100AF0000FB6F894DEBF0FBECDBF789484B5826088
:100B000084BD84B5816084BD85B5826085BD85B5B1
:100B1000816085BD80916E00816080936E0010922F
:100B200081008091810082608093810080918100AA
:100B3000816080938100809180008160809380003B
:100B40008091B10084608093B1008091B000816099
:100B50008093B00080917A00846080937A008091C5
:100B60007A00826080937A0080917A00816080931D
:100B70007A0080917A00806880937A001092C10098
:100B8000E091FB01F091FC0182E08083E091F701AC
:100B9000F091F8011082E091F901F091FA018FECE7
:100BA000808310920302E091FF01F091000286E041
:100BB0008083E091FD01F091FE018081806180835E
:100BC000E091FD01F091FE01808188608083E091D9
:100BD000FD01F091FE01808180688083E091FD013C
:100BE000F091FE0180818F7D8083E091E501F0919D
:100BF000E60188E091E0918380831382128215825E
:100C00001482178216820E94E702E091E501F091BA
:100C1000E60180E091E09387828715861486178627
:100C20001686118A108A0E94E70280E0E82E80E092
:100C3000F82E8BEE91E00E942701181619060CF091
:100C40009EC01A8219821C821B821E821D8270E045
:100C500060E0CE0101960E94330429813A8181111E
:100C60002BC02115310519F0C9010E94C5081A824F
:100C700019821E821D821C821B820E94D90097FD50
:100C800023C08F8318860D811E810F5F1F4FB8010F
:100C9000CE0101960E943304882379F329813A8199
:100CA0008D819E81BE01695F7F4F820F931F0E94DD
:100CB0001D0A1E830D83E1CF1E821D826AE471E04E
:100CC000C9010E941D0AD9CF8091880290918902A2
:100CD000009709F471C069817A816115710509F481
:100CE00069C040918A0250918B022D813E8142174A
:100CF000530708F45FC00E941D0A8D819E81909366
:100D00008D0280938C0289819A810E94C50884E6B5
:100D100091E00E941A04882309F463C08EE691E0F2
:100D20000E945402E091E501F091E60186819781ED
:100D30000E946202E091E501F091E60180899189CB
:100D40000E946202E091E501F091E60182819381C7
:100D50009187808784859585938B828B24EA36E002
:100D6000AF0162E070E084E090E00E942103909384
:100D7000E6018093E5018BEE91E00E94B6010E94AE
:100D800022024B015C010E942202681979098A093A
:100D90009B09683E734081059105A8F3E114F104B5
:100DA00009F447CF0E943301882309F442CF0E94FF
:100DB00000003FCF0E94C50889819A8190938902E3
:100DC000809388028B819C8190938B0280938A020E
:100DD0008D819E8190938D0280938C021A8219825C
:100DE00092CF89E791E00E941A04882351F181E8AB
:100DF00091E00E945402E091E501F091E6018681C4
:100E00009781885E9340918780878AE0ABEDB1E05F
:100E100001900D928A95E1F720ED37E04BED51E01E
:100E200061E070E084E090E00E942103E091E50140
:100E3000F091E60186819781885E9340978386834F
:100E40009ACF88E891E00E941A04882341F182E950
:100E500091E00E945402E091E501F091E601868163
:100E6000978188519C4F918780878AE0ABEDB1E0F4
:100E700001900D928A95E1F720ED37E04BED51E0BE
:100E800061E070E084E090E00E942103E091E501E0
:100E9000F091E6018681978188519C4FCFCF8BE9F5
:100EA00091E00E941A04882359F185EA91E00E949A
:100EB0005402E091E501F091E60180899189885E14
:100EC0009340938B828B8AE03A96ABEDB1E0019030
:100ED0000D928A95E1F720ED37E04BED51E061E0AE
:100EE00070E084E090E00E942103E091E501F09140
:100EF000E60180899189885E9340918B808B3BCFFE
:100F00008EEA91E00E941A04882349F189EB91E06E
:100F10000E945402E091E501F091E60180899189F7
:100F200088519C4F938B828B8AE03A96ABEDB1E06F
:100F300001900D928A95E1F720ED37E04BED51E0FD
:100F400061E070E084E090E00E942103E091E5011F
:100F5000F091E6018089918988519C4FCECF83EC36
:100F600091E00E94470240918C0250918D02609165
:100F70008802709189028BEE91E00E94890088E4DA
:100F800091E00E944702F7CE8091880290918902F9
:100F90000C94C5082F923F924F925F926F927F926E
:100FA0008F929F92AF92BF92CF92DF92EF92FF9279
:100FB0000F931F93CF93DF93CDB7DEB7CA1BDB0B25
:100FC0000FB6F894DEBF0FBECDBF09942A883988CA
:100FD00048885F846E847D848C849B84AA84B984D1
:100FE000C884DF80EE80FD800C811B81AA81B981DD
:100FF000CE0FD11D0FB6F894DEBF0FBECDBFED01F1
:101000000895A1E21A2EAA1BBB1BFD010DC0AA1F49
:10101000BB1FEE1FFF1FA217B307E407F50720F061
:10102000A21BB30BE40BF50B661F771F881F991FDC
:101030001A9469F760957095809590959B01AC0125
:10104000BD01CF010895EE0FFF1F0590F491E02D33
:1010500009940F931F93CF93DF938230910510F47F
:1010600082E090E0E0919002F091910230E020E087
:10107000B0E0A0E0309799F42115310509F44AC099
:10108000281B390B24303105D8F58A819B816115E5
:10109000710589F1FB0193838283FE0111C04081B8
:1010A00051810281138148175907E0F04817590709
:1010B00099F4109761F012960C93129713961C9363
:1010C0003296CF01DF91CF911F910F910895009338
:1010D000900210939102F4CF2115310551F042177F
:1010E000530738F0A901DB019A01BD01DF01F801C6
:1010F000C1CFEF01F9CF9093910280939002CDCFB1
:10110000FE01E20FF31F819391932250310939833D
:101110002883D7CF20918E0230918F02232B41F468
:10112000209132013091330130938F0220938E024F
:1011300020913001309131012115310541F42DB755
:101140003EB74091340150913501241B350BE0919D
:101150008E02F0918F02E217F307A0F42E1B3F0BD3
:101160002817390778F0AC014E5F5F4F2417350719
:1011700048F04E0F5F1F50938F0240938E02819371
:1011800091939FCFF0E0E0E09CCFCF93DF93009767
:10119000E9F0FC01329713821282A0919002B09183
:1011A0009102ED0130E020E01097A1F4208131811F
:1011B000820F931F20918E0230918F0228173907DA
:1011C00009F061C0F0938F02E0938E02DF91CF911E
:1011D0000895EA01CE17DF07E8F54A815B819E0199
:1011E00041155105B1F7E901FB83EA834991599112
:1011F000C40FD51FEC17FD0761F480819181029621
:10120000840F951FE90199838883828193819B8351
:101210008A83F0E0E0E012968D919C9113970097FD
:10122000B9F52D913C911197CD010296820F931F34
:1012300020918E0230918F022817390739F63097A6
:1012400051F51092910210929002B0938F02A093E8
:101250008E02BCCFD383C28340815181840F951FFE
:10126000C817D90761F44E5F5F4F88819981480F95
:10127000591F518340838A819B81938382832115E7
:10128000310509F0B0CFF0939102E09390029ECF28
:10129000FD01DC01C0CF13821282D7CFB0E0A0E005
:1012A000E4E5F9E00C94CC078C01009751F4CB01F4
:1012B0000E9429088C01C801CDB7DEB7E0E10C948B
:1012C000E807FC01E60FF71F9C0122503109E217E5
:1012D000F30708F49DC0D901CD91DC911197C61791
:1012E000D70798F0C530D10530F3CE0104978617A3
:1012F000970708F3C61BD70B2297C193D1936D9321
:101300007C93CF010E94C508D6CF5B01AC1ABD0A01
:101310004C018C0E9D1EA0919002B0919102512C17
:10132000412CF12CE12C109731F580918E02909197
:101330008F028815990509F05CC04616570608F01B
:1013400058C08091300190913101009741F48DB7E0
:101350009EB74091340150913501841B950BE817DD
:10136000F90708F055C0F0938F02E0938E02F9015F
:1013700071836083A0CF8D919C91119712966C9090
:10138000129713967C901397A815B90559F56C011F
:1013900042E0C40ED11CCA14DB0420F1AC014A198E
:1013A0005B09DA011296159780F06282738251838D
:1013B0004083D9016D937C93E114F10471F0D7015E
:1013C0001396FC93EE93129776CF22968C0F9D1F67
:1013D000F90191838083F301EFCFF0939102E093C1
:1013E000900269CF4816590608F42C017D01D301FB
:1013F0009ACFCB010E9429087C01009749F0AE01E9
:10140000B8010E940B0AC8010E94C508870153CF8A
:1014100010E000E050CFFB01DC0102C001900D9212
:1014200041505040D8F70895FB01DC018D910190A7
:1014300080190110D9F3990B0895FB01DC0101908B
:101440000D920020E1F7089510E0CDE5D0E004C052
:10145000FE010E9423082196CE35D107C9F7F894E2
:02146000FFCFBC
:10146200050006000700080009000A000B000C0036
:101472000100010000000000000001000100000066
:101482000000000001000100010000000000010056
:101492000000920280000000000069018900B6008D
:1014A200B6012701C50019010D0A00436F6E666976
:1014B200672070696E3A00457865632073746570C1
:1014C200733A2000686F6D652D616C6C0A00476F7E
:1014D20020746F20686F6D650075702D616C6C0AE9
:1014E20000557020616C6C00646F776E2D616C6CBE
:1014F2000A00446F776E20616C6C006C6566742D17
:10150200616C6C0A004C65667420616C6C007269D7
:101512006768742D616C6C0A005269676874206197
:101522006C6C004F7074696F6E206E6F7420666F02
:06153200756E643A200012
:107800000C94343C0C94513C0C94513C0C94513CE1
:107810000C94513C0C94513C0C94513C0C94513CB4
:107820000C94513C0C94513C0C94513C0C94513CA4
:107830000C94513C0C94513C0C94513C0C94513C94
:107840000C94513C0C94513C0C94513C0C94513C84
:107850000C94513C0C94513C0C94513C0C94513C74
:107860000C94513C0C94513C11241FBECFEFD8E036
:10787000DEBFCDBF11E0A0E0B1E0ECE9FFE702C060
:1078800005900D92A230B107D9F712E0A2E0B1E065
:1078900001C01D92AD30B107E1F70E942D3D0C945F
:1078A000CC3F0C94003C982F959595959595959582
:1078B000905D8F708A307CF0282F295A8091C0000B
:1078C00085FFFCCF9093C6008091C00085FFFCCF60
:1078D0002093C6000895282F205DF0CF982F809127
:1078E000C00085FFFCCF9093C6000895EF92FF92F1
:1078F0000F931F93EE24FF2487018091C00087FD22
:1079000017C00894E11CF11C011D111D81E4E8164B
:1079100082E4F8068FE0080780E0180770F3E09132
:107920000401F091050109958091C00087FFE9CF1E
:107930008091C6001F910F91FF90EF9008950E94D3
:10794000763C982F8091C00085FFFCCF9093C600B5
:1079500091362CF490330CF09053892F089597555D
:10796000892F08951F930E949F3C182F0E949F3CCF
:107970001295107F810F1F9108951F93182F882350
:1079800021F00E94763C1150E1F71F9108951F935A
:10799000182F0E94763C803249F0809103018F5F5E
:1079A000809303018530C1F01F9108958091C0003C
:1079B00085FFFCCF84E18093C6008091C00085FFE5
:1079C000FCCF1093C6008091C00085FFFCCF80E102
:1079D0008093C6001F910895E0910401F091050184
:1079E00009951F9108950E94763C803241F0809164
:1079F00003018F5F80930301853081F008958091AA
:107A0000C00085FFFCCF84E18093C6008091C00058
:107A100085FFFCCF80E18093C6000895E0910401CA
:107A2000F09105010995089540E951E08823A1F0FE
:107A30002D9A28EE33E0FA013197F1F721503040CA
:107A4000D1F72D9828EE33E0FA013197F1F7215064
:107A50003040D1F7815061F708953F924F925F9285
:107A60006F927F928F929F92AF92BF92CF92DF924E
:107A7000EF92FF920F931F93CF93DF93000080E16B
:107A80008093C4001092C50088E18093C10086E015
:107A90008093C2005098589A259A81E00E94143D24
:107AA00024E1F22E9EE1E92E85E9D82E0FE0C02ECA
:107AB00010E1B12EAA24A394B1E49B2EA6E58A2E50
:107AC000F2E57F2EE0E26E2E79E4572E63E5462E36
:107AD00050E5352E0E94763C8033B1F18133B9F107
:107AE000803409F46FC0813409F476C0823409F41B
:107AF00085C0853409F488C0803531F1823521F1A3
:107B0000813511F1853509F485C0863509F48DC0BC
:107B1000843609F496C0843709F403C1853709F423
:107B200072C1863709F466C0809103018F5F80932C
:107B30000301853079F6E0910401F0910501099582
:107B40000E94763C803351F60E94F33CC3CF0E94E2
:107B5000763C803249F78091C00085FFFCCFF092DF
:107B6000C6008091C00085FFFCCF9092C600809136
:107B7000C00085FFFCCF8092C6008091C00085FFC9
:107B8000FCCF7092C6008091C00085FFFCCF609250
:107B9000C6008091C00085FFFCCF5092C600809146
:107BA000C00085FFFCCF4092C6008091C00085FFD9
:107BB000FCCF3092C6008091C00085FFFCCFB09210
:107BC000C60088CF0E94763C863808F4BDCF0E945C
:107BD000763C0E94F33C7ECF0E94763C803809F4CC
:107BE0009CC0813809F40BC1823809F43CC1883942
:107BF00009F48FC080E00E94C73C6CCF84E10E94F2
:107C0000BD3C0E94F33C66CF85E00E94BD3C0E94D3
:107C1000F33C60CF0E94763C809306010E94763C44
:107C2000809307010E94F33C55CF0E94763C80333D
:107C300009F41DC183E00E94BD3C80E00E94C73C66
:107C400049CF0E94763C809309020E94763C809343
:107C5000080280910C028E7F80930C020E94763C79
:107C6000853409F415C18091080290910902892B8D
:107C700089F000E010E00E94763CF801E85FFE4FDA
:107C800080830F5F1F4F80910802909109020817AF
:107C9000190788F30E94763C803209F045CF809125
:107CA0000C0280FF01C16091060170910701660F0F
:107CB000771F7093070160930601A0910802B091AD
:107CC00009021097C9F0E8E0F1E09B01AD014E0F09
:107CD0005F1FF999FECF32BD21BD819180BDFA9A17
:107CE000F99A2F5F3F4FE417F50799F76A0F7B1F4B
:107CF00070930701609306018091C00085FFFCCF5F
:107D0000F092C6008091C00085FFFCCFB092C60003
:107D1000E1CE83E00E94C73CDDCE82E00E94C73CFA
:107D2000D9CE0E94763C809309020E94763C8093D3
:107D300008028091060190910701880F991F909386
:107D40000701809306010E94763C853409F4A6C0A1
:107D500080910C028E7F80930C020E94763C8032D0
:107D600009F0B8CE8091C00085FFFCCFF092C6002C
:107D7000609108027091090261157105B9F140E046
:107D800050E080910C02A82FA170B82FB27011C0E2
:107D9000BB2309F45CC0E0910601F0910701319624
:107DA000F0930701E09306014F5F5F4F46175707B7
:107DB000E8F4AA2369F3F999FECF209106013091E6
:107DC000070132BD21BDF89A90B58091C00085FFB2
:107DD000FCCF9093C6002F5F3F4F30930701209355
:107DE00006014F5F5F4F4617570718F38091C00099
:107DF00085FDE5CE8091C00085FFF8CFE0CE81E023
:107E00000E94C73C67CE0E94763C803209F08CCE3F
:107E10008091C00085FFFCCFF092C6008091C00029
:107E200085FFFCCFE092C6008091C00085FFFCCFAB
:107E3000D092C6008091C00085FFFCCFC092C600E2
:107E40008091C00085FFFCCFB092C60043CEE09188
:107E50000601F091070194918091C00085FFFCCF4D
:107E60009093C6009CCF80E10E94C73C33CE0E9415
:107E7000763C0E94763C182F0E94763C112309F430
:107E800083C0113009F484C08FE00E94C73C22CE29
:107E900080910C02816080930C02E5CE80910C02EF
:107EA000816080930C0259CF809107018823880F4D
:107EB000880B8A2180930B02809106019091070123
:107EC000880F991F90930701809306018091080203
:107ED00080FF09C080910802909109020196909359
:107EE000090280930802F894F999FECF1127E091D6
:107EF0000601F0910701C8E0D1E08091080290915D
:107F00000902103091F40091570001700130D9F34B
:107F100003E000935700E89500915700017001308D
:107F2000D9F301E100935700E89509901990009169
:107F3000570001700130D9F301E000935700E89534
:107F40001395103498F011270091570001700130FB
:107F5000D9F305E000935700E895009157000170B0
:107F60000130D9F301E100935700E895329602976A
:107F700009F0C7CF103011F00296E5CF112480919F
:107F8000C00085FFB9CEBCCE8EE10E94C73CA2CD19
:0C7F900085E90E94C73C9ECDF894FFCF0D
:027F9C00800063
:040000030000780081
:00000001FF
